:020000040000FA
:06000000020AB40201CD6A
:03001B0002030BD2
:03002B000208FFC9
:0300330002071BA6
:030043000207B4FD
:03004B0002030AA3
:030053000200FEAA
:03006B0002070188
:100083000201620101FF01010503010F10FEFF26BA
:1000930013261326132613E211DC112613F525006C
:1000A3000000005726000000000C0000000C0001B7
:1000B300FFFF0100414C442057534E2D7379737455
:1000C300656D0000000000000102006B06000000E7
:1000D300DE066400020200000002050207051E029C
:1000E300051E020A0A03B80B02803E010288161499
:1000F3001F00E00796511800020206C0E074F212D6
:100103000456A2AFE433FED2AFE5A7FFE5A1F5089D
:100113005F54106006121B4875A1EFE5085F540891
:100123006008121B4E75A1F7802BEFA2E0C0D0E54B
:1001330008A2E092F01209DB158182F0501790615A
:1001430098E0F8900BBCE0C398A2D265D03350027C
:10015300E8F075A1FEEEA2E092AF7F010204B5C004
:10016300E074F2120456A2AFE433FED2AF9061A45E
:10017300E0F8759B00E59158540860087591F712F3
:100183001B96802AE59158541060087591EF121B55
:100193009C801BE8A2E0C0D0E591A2E092F0120996
:1001A300DB158182F05007E0C2E0F0121CE09061A1
:1001B300A3E0F8E5E9585404600E121CB675E9FB98
:1001C300906193E0A2E640F2808BC0E074F21204E7
:1001D30056A2AFE433FED2AF9061A5E0F8E5BF5875
:1001E3005404600675BFFB121CF8020158C3E4985F
:1001F300F8E499F91202318026C3E49AFAE49BFBEE
:10020300E920E7E9120231E498F8E499F922C3E41A
:1002130098F8E499F9120231E498F8E499F9C3E4FF
:100223009AFAE49BFB22EB20E7CFE920E7E0B90051
:1002330010BB0008E88AF084F8AAF022E4FBC8FAAD
:1002430022EB70227B10C833C8C933C9335007C3AC
:100253009AC3DBF280069A50012ADBEAC833F4C85A
:10026300C933F4C9FA2275F008E4C833C8C933C9DD
:1002730033C99AC99B5004C92AC93BD5F0ECFBC8C2
:1002830033F4C8E4C9FA22080808EAC0E0EBC0E086
:1002930086F0E7A4FA180986F0E7A42AFA18098673
:1002A300F0E7A42AFA180986F0E7A42AFA1986F0D7
:1002B300E7A4FBE5F02AFA190886F0E7A42BFBE58F
:1002C300F03AFA190886F0E7A42BFBE5F03AFA189E
:1002D300180986F0E7A4C5F02BFBE43AFA1908E7FE
:1002E300C5F0C6A426F6E5F03BFBE43AFA1886F01F
:1002F300E7A4F6E5F00826F6E43B08F6E43A08F648
:10030300D0E0FBD0E0FA2232C0E074F1120456E5EB
:10031300F96029740A65F96023E5F9C0E09006499C
:10032300E024E5F8A3E03405F988828983D0E0F07E
:10033300900649E02401F0A3E03400F0742465F949
:100343007030900649E0FCA3E0FD7AE57B051216C8
:10035300D4900649E4F0A3F0750864F5097808120F
:1003630008B87C007D007AE57B05121E2474021216
:1003730008CB7F020204B5E4CFC0E0E4CEC0E0E4E2
:10038300CDC0E0E4CCC0E075F020C3E633F608E668
:1003930033F608E633F608E633F6181818EC33FCA0
:1003A300ED33FDEE33FEEF33FFC3EC9709ED970911
:1003B300EE9709EF97191919400FFFEC97FC09ED18
:1003C30097FD09EE97FE191906D5F0BEECF709ED76
:1003D300F709EEF709EFF7191919D0E0FCD0E0FDA2
:1003E300D0E0FED0E0FF222518C582C0E0E5193435
:1003F300FFC583C0E0E518C3958224F810AF0885D4
:1004030083198582188008858319858218D2AFCE17
:10041300F0A3E520F0A37808E608F0A3DEFAEFF0F6
:10042300A3E58124FAF8E608F0A3E608F0A3E608BA
:10043300F0A30808E608F0A3E608F0A315811581E8
:10044300D0E0FED0E0F8158115811581E8C0E0EE1B
:10045300C0E022C0D02518C582C0E0E51934FFC52D
:1004630083C0E0E518C3958224F310AF0885831990
:100473008582188008858319858218D2AFC8F0A3B6
:10048300E9F0A3EAF0A3EBF0A37908E709F0A3D816
:10049300FAECF0A3EDF0A3EEF0A3EFF0A3D0E0F0BD
:1004A300A3D0E0F0A3D0E0F0A3E520F0A3E5F0F0C3
:1004B300A322851983851882E0C0E0A3E0F9A3E0B5
:1004C300FAA3E0FBA37808E0F608A3DFFAE0FCA3B5
:1004D300E0FDA3E0FEA3E0FFA3E0C0E0A3E0C0E0F3
:1004E300A3E0F5D0A3E0F520A3E0A3F5F010AF0857
:1004F3008583198582188008858319858218D2AF70
:10050300D082D083D0E0F8D0E032120B16B90003CA
:1005130002054FE49003017883790F8002F0A3D89A
:10052300FCD9FA901183AA82AB83900086787979FB
:10053300018015E493A3AC82AD838A828B83F0A3FD
:10054300AA82AB838C828D83D8E9D9E77582A6759D
:1005530083F0740312087775829275831F740012F7
:10056300087715000975F0108E1A8F1B85821F8579
:10057300831E851882851983E0CEA3E0CF851F8271
:10058300851E83EBC9EAC8EDCBECCAC3E833C8E9DF
:1005930033C9EA33CAEB33CBC3EA9EF51DEB9FF5B0
:1005A3001CB35004AB1CAA1DEC33CCED33CDD5F0FA
:1005B300DAAE1AAF1B22D083D082ECC0E0EDC0E0EC
:1005C300E493A3FCE493A3FDED4C600D120691ECC0
:1005D30024FFFCED34FFFD80EFE493A3FCE493A33D
:1005E300FDED4C600D12075FEC24FFFCED34FFFDC5
:1005F30080EFD0E0FDD0E0FCE493A3C0E0E493C03F
:10060300E022851983851882E0A3FEE0A3F5207814
:1006130008E0A3F608DFFAE0A3FFE0A3C0E0E0A34D
:10062300C0E0E0A3C0E0E0A3C0E0E0A3C0E010AFFF
:10063300088582188583198008858218858319D2D5
:10064300AFD083D08202087DD083D082E9C0E0E4BA
:1006530093A3C386F0C5F095F0F908E493A386F05D
:10066300C5F095F0700BE493A3C3994005E90480AA
:1006730002A3E475F002A42582F582E5F03583F543
:1006830083D0E0F9E493A3C0E0E493C0E022C0E0A8
:10069300C3E49396087401939618400FE49366702D
:1006A3000808740193661870007019A3A3C3E49338
:1006B30096087401939618A3A3400DD0E0D0E0D020
:1006C300E00205F5A3A3A3A3A3A3D0E022740480AF
:1006D3000474028000CCC0E0EDC0E0E518C39CCCFC
:1006E300AD1950011D10AF068C188D1980068C189A
:1006F3008D19D2AF1207F9D0E0FDD0E0FC22C0E0A3
:1007030074F2120456E589A2E150031219FE7589A9
:1007130000C2C57F010204B5C0E074F2120456E5BD
:100723008BA2E050031219FE758B00C2E880E474BB
:10073300028000CCC0E0EDC0E0E518C39CCCAD194D
:1007430050011D10AF068C188D1980068C188D1959
:10075300D2AF1207D7D0E0FDD0E0FC22C0E0C0F05A
:1007630088F0E4936670080874019366187000A813
:10077300F0A3A3700BD0F0D0E0D0E0D0E00205F5F9
:10078300A3A3D0F0D0E022D083D082CCC0E0E49306
:10079300A360061208391470FAE493A360061209E1
:1007A300491470FAD0E0FCE493A3C0E0E493C0E002
:1007B30022C0E074F2120456A2AFE433FED2AFC2F9
:1007C300C0E5D1A2E45003121AC4EEA2E092AF7FB7
:1007D300010204B5CAC0E0E493A3C582CCC582C5B7
:1007E30083CDC583F0A3C582CCC582C583CDC58324
:1007F300DAE5D0E0CA22CAC0E0E0A3C582CCC58254
:10080300C583CDC583F0A3C582CCC582C583CDC5C1
:1008130083DAE6D0E0CA22700908080822601618B5
:100823001818C6C333C608C633C608C633C608C6B7
:1008330033C6D5E0EA22C0E0E493A3D39C5010E48E
:1008430093A3C39C400AD0E0D0E0D0E00207A7A363
:10085300A3A3D0E022C008C3E096F50808A3E0965E
:10086300420808A3E096420808A3E09645087001F1
:10087300D3D00822C09FF59FE473D09F22D083D0AA
:1008830082C09FE493C0E0740193C0E0740293F5C7
:100893009F222518F58210AF08F51840021519801C
:1008A30008F51840021519D2AF8519832274048004
:1008B3000A74038006740280027401C0E0F4041217
:1008C3000895D0E0120AF122C0D0251810AF08F520
:1008D30018500205198008F51850020519D2AFD037
:1008E300D022BB0102E722C082C08389828A83BBF4
:1008F3000003E08002E493D083D08222C0E0C0D022
:10090300E8C0E0E5A8D2AFC2C7A2E792AFD0E0F853
:10091300D0D0D0E0326016080808C6C313C618C684
:1009230013C618C613C618C613C6D5E0EA22C3E019
:10093300C696F608A3E0C696F608A3E0C696F608A0
:10094300A3E0C696F622C0E0E493A36C7009D0E05E
:10095300D0E0D0E00207A7A3A3D0E022251810AF70
:1009630008F518400215198008F51840021519D228
:10097300AF22E76670100809E766700A0809E766A0
:1009830070040809E76622E066701008A3E0667049
:100993000A08A3E066700408A3E06622C3E0960891
:1009A300A3E09608A3E09608A3E096A2D265D0330D
:1009B30022C3E096F008A3E096F008A3E096F008BF
:1009C300A3E096F022E026F008A3E036F008A3E0C7
:1009D30036F008A3E036F022C0E0E8C0E0E5812469
:1009E300FCF8E6A2E7D0E0F8D0E022E647F60809F3
:1009F300E647F60809E647F60809E647F622E02641
:100A0300F608A3E036F608A3E036F608A3E036F6C8
:100A130022E627F60809E637F60809E637F6080955
:100A2300E637F622E657F60809E657F60809E657C9
:100A3300F60809E657F622E056F608A3E056F6084C
:100A4300A3E056F608A3E056F622E056F008A3E02A
:100A530056F008A3E056F008A3E056F022700422F3
:100A6300600D18C6C333C608C633C6D5E0F41822D2
:100A7300E4C396F608E496F608E496F608E496F6D8
:100A830022C6F4C608C6F4C608C6F4C608C6F4C629
:100A930022C3E7960809E7960809E7960809E79647
:100AA30022C3E09608A3E09608A3E09608A3E09685
:100AB3002275D00075814075180175190300020570
:100AC3000DE0F608A3E0F608A3E0F608A3E0F6229B
:100AD300600C08C6C313C618C613C6D5E0F422E6D5
:100AE300F008A3E6F008A3E6F008A3E6F022CAC0E4
:100AF300E0E6F0A308DAFAD0E0FA22E0FAA3E0FB9A
:100B0300A3E0FCA3E0FD22EAF0A3EBF0A3ECF0A347
:100B1300EDF022E5C754F84401F5C7790122251801
:100B2300F582E43519F58322C2AF75D69F02000022
:100B33002212088023E40212088041E40212088092
:100B4300F52800120880072900120880592900128D
:100B53000880BA2900120880442A00120880E82A73
:100B6300001208803C2B00120880552B00120880CD
:100B73007B2B00120880B62B00120880FA2B001280
:100B83000880212C00120880722C00120880222D6C
:100B930000120880DA2D00120880A22E00120880AD
:100BA300622F00120880A62F00120880CB2F00129C
:100BB30008800E30001208805B3000120880B331C9
:100BC3000012088039320012088057320012088060
:100BD3008132001208809B3200120880AA32001270
:100BE3000880B53200120880753300120880CE33B6
:100BF3000012088090340012088098340012088094
:100C03005C3500120880C83500120880F3360012E4
:100C130008801837001208808E37001208802038A9
:100C230000120880E03800120880FF3800120880A4
:100C33000E3A00120880203A00120880903A0012FF
:100C43000880BA3A00120880483B00120880813BB2
:100C530000120880CD3B00120880E93C0012088096
:100C6300323F001208803D3F00120880483F0012C7
:100C73000880533F001208805D3F00120880683FE0
:100C830000120880823F001208808C3F0012088007
:100C9300963F00120880A13F00120880C93F00124E
:100CA30008802440001208802E4000120880524021
:100CB30000120880764000120880D4400012088099
:100CC300184100120880344100120880AB41001221
:100CD3000880E341001208802F42001208808C42F2
:100CE300001208804643001208802A45001208803B
:100CF300834500120880B34600120880D9460012CB
:100D03000880624800120880DE4B00120880B04D54
:100D130000120880794F00120880265000120880C4
:100D2300915100120880305200120880755200124F
:100D33000880DF5200120880EE52001208807555B9
:100D43000012088027570012088094570012088069
:100D53007358001208808C5900120880095B001236
:100D63000880285B001208807D5B00120880825C8B
:100D730000120880AA5C00120880025D001208803D
:100D8300E15D00120880255E00120880705E00128B
:100D93000880DB5E001208801C60001208808060FF
:100DA30000120880CE61001208802E6400120880B1
:100DB3005F64001208801766001208806C660012D8
:100DC30008807067001208800D680012088066684A
:100DD30000120880196900120880BB69001208809C
:100DE3005B6A00120880006B00120880D086011233
:100DF30008800F8701120880568901120880A08994
:100E030001120880BB8A01120880238B011208801B
:100E1300588B01120880CC8C011208804F8F01126D
:100E230008807890011208800E9101120880169AAA
:100E330001120880AB9A01120880929D011208806A
:100E4300859E01120880F39E0112088039A00112C9
:100E530008801BA10112088000A30112088011A5BC
:100E6300011208807BA5011208804DA6011208809B
:100E73007BA60112088038A7011208800FA801126F
:100E83000880D6A8011208807AA901120880A3A9B4
:100E930001120880C5A9011208801BAC0112088049
:100EA300F3AC0112088037AD011208809FAD011227
:100EB300088057AE0112088089AE01120880CDAEBA
:100EC3000112088003AF011208804FAF011208809E
:100ED300A4AF01120880A9AF01120880FCAF011270
:100EE300088021B00112088030B10112088094B14A
:100EF3000112088004B20112088090B20112088026
:100F03005DB50112088041B601120880C4B7011211
:100F13000880FAB901120880A8BA0112088058BBE8
:100F23000112088099BD011208803CBE011208809D
:100F330083BE011208802FC00112088043C0011232
:100F430008804DC00112088075C00112088081C05D
:100F530001120880A0C001120880C0C201120880DB
:100F63000FC40112088053C401120880FBC401128C
:100F73000880DEC50112088089C601120880D5C722
:100F830001120880D3C80112088079C901120880B0
:100F930009CA0112088020CA0112088057CA011227
:100FA300088061CA011208806CCA011208808ACACB
:100FB30001120880CECA011208802BCB01120880CF
:100FC30050CB011208806ACB01120880F6CB0112C4
:100FD300088013CD0112088080CD0112088067CEEE
:100FE300011208808ECE0112088002CF0112088000
:100FF3007DCF0112088081D00112088077D10112C0
:10100300088026D20112088039D301120880D5D373
:101013000112088062D40112088040D501120880B1
:1010230078D501120880D0D50112088099D6011213
:101033000880BAD60112088041D70112088065D70B
:101043000112088087D701120880D0D701120880C7
:10105300E6D901120880CDDA011208807EDB011285
:101063000880B4DD0112088004DE0112088044DE2A
:101073000112088086DE01120880E2DE0112088078
:1010830010DF0112088034DF0112088087DF0112AC
:101093000880B5DF01120880EEDF0112088043E00B
:1010A30001120880A9E001120880FDE10112088005
:1010B30020E4011208808DE401120880B6E40112D5
:1010C300088041E501120880A8E501120880F3E5D4
:1010D3000112088017E6011208803BE6011208801E
:1010E30096E601120880B1E6011208806AE7011250
:1010F3000880998B04120880D88B041208807880AA
:1011030002120880BE80021208809E8102120880AB
:10111300A08202120880A383021208802F85021284
:1011230008808D85021208804A860212088068872B
:1011330002120880D98702120880158802120880DB
:101143006388021208806D8802120880B188021237
:1011530008800D8902120880A88902120880258A56
:1011630002120880F48A021208808D8B0212088012
:10117300AD8B02120880E38B02120880148C0212DA
:101183000880D58C02120880E58C02120880398D04
:1011930002120880548D02120880668D02120880A4
:1011A3006F8D02120880C98D02120880258E0212EB
:1011B3000880718E021208808C8E02120880BD8E08
:1011C30002120880DA8E02120880E68E021208806C
:1011D3005A9002120880739002120880DA90021269
:1011E3000880ED9002120880FB9002120880AF91F4
:1011F30002120880939202120880999302120880C7
:101203002394021208802D94021208809A940212E9
:101213000880B19402120880E394021208801C959E
:1012230002120880469502120880A79502120880D0
:10123300C79502120880E595021208802B960212C8
:1012430008805197021208809E9702120880CD975A
:10125300021208804398021208806B9802120880D9
:10126300A49802120880B298021208800A99021206
:101273000880599902120880989902120880C89927
:1012830002120880F49902120880FF990212088062
:101293001D9A02120880DF9A02120880E99A02124C
:1012A30008802A9B021208807F9B02120880939B6E
:1012B30002120880A19C02120880B49C02120880CA
:1012C300C99C021208806B9D02120880EE9D0212D7
:1012D3000880AC9E02120880B79E02120880E39F2A
:1012E30002120880FF9F0212088051A00212088098
:1012F30090A002120880A5A00212088007A1021282
:10130300088096A102120880E1A10212088032A48B
:1013130002120880B0A40212088025A502120880D8
:1013230047A7021208805FA70212088062A7021271
:1013330008806EA70212088082A7021208808AA77B
:1013430002120880BDA7021208806DA8021208804D
:10135300E3A80212088056A9021208800AAA021200
:101363000880BFAA02120880DEAA0212088084AB9A
:1013730002120880AFAB02120880B2AB02120880DF
:101383001CAC0212088044AD021208801CAE02128B
:101393000880A7AE02120880C0AF021208807DB099
:1013A30002120880B6B002120880E7B00212088069
:1013B300A5B102120880D5B102120880B0B20212A0
:1013C300088049B302120880D4B30212088085B49E
:1013D3000212088008B5021208803AB5021208808A
:1013E3007BB50212088067A703120880CCA70312FB
:1013F300088009A80312088058A8031208806EAA5F
:101403000312088051AC03120880BBAF031208809B
:10141300F6AF0312088018B0031208807BB00312E2
:101423000880AFB003120880D2B003120880FFB067
:10143300031208805BB103120880A29B0312088089
:10144300209C03120880569C03120880C29C03123E
:101453000880359E03120880519E03120880969ED1
:1014630003120880249F031208807D9F03120880C3
:10147300AAA003120880BCA10312088019A20312B8
:10148300088085A203120880E6A20312088027A31E
:1014930003120880D4A303120880E6A40312088071
:1014A30011A5031208805CA503120880A3A50312EB
:1014B3000880B9D702120880F0A60312088069FEDB
:1014C3000212088099FE02120880EEFE02120880C2
:1014D300A7B103120880B1B103120880FDB1031252
:1014E30008806BB2031208808CB2031208803CB3ED
:1014F30003120880D0B503120880D9B503120880FF
:101503002CB60312088055B603120880EFE20212CC
:1015130008804DB7031208808FB703120880D9B72C
:101523000312088038B80312088064B803120880D5
:10153300F5B80312088034B90312088073B9031293
:101543000880A8B903120880BAB903120880CCB97D
:1015530003120880EBB903120880F4B90312088060
:10156300AABA03120880EABA0312088098890412FF
:10157300088033FB0312088069FB03120880B2FB67
:101583000312088002FD031208804C6B00120880CE
:101593008B6C00120880C76C00120880866E0012E4
:1015A3000880AF6E001208804271001208808671B5
:1015B300001208800F7300120880A77300120880BE
:1015C3000F7400120880B07400120880F2740012C5
:1015D3000880327500120880BD76001208802D78CD
:1015E30000120880527A00120880807A0012088064
:1015F300A77A00120880B07A00120880377B0012A5
:101603000880557E00120880128D04120880288DF0
:10161300041208804E8B0412088041ED03120880E7
:1016230054ED03120880F1ED031208802CEE03122F
:10163300088047EE031208806CEE03120880B1EEB7
:1016430003120880E2EE0312088013EF03120880EE
:1016530099F003120880F384041208802985041288
:1016630008804585041208808785041208809785C1
:10167300041208802C86041208803686041208801F
:101683004E8604120880A4E701120880BCE7011209
:101693000880E8E70112088020E80112088037E893
:1016A300011208805DE8011208806BE801120880CE
:1016B3007AE80112088090E801120880DBE8011241
:1016C300088030E901120880C8EA0112088050EB53
:1016D3000112088067EC011208809BEC011208805C
:1016E30075EE01120880D9EF0112088044F101124E
:1016F300088088F2011208803AF40112088052F43B
:101703000112088059F50112088084F5011208803E
:101713009CF5011208807B8E03120880D08E031281
:101723000880B98F031208805290031208809C909E
:1017330003120880F990031208800D9103120880A8
:101743003F91031208803D92031208808192031295
:1017530008809C9203120880EB9203120880019385
:10176300031208800E930312088042930312088029
:101773005B93031208802594031208807F9403125D
:101783000880CD9403120880EF94031208806697B3
:10179300031208809B97031208802B98031208807A
:1017A300A09803120880A59803120880E1980312F9
:1017B3000880379903120880FB9903120880209A46
:1017C300031208802A9A031208802D9A03120880B4
:1017D300B69A03120880D19A03120880E49A03127E
:1017E30008801F9B03120880229B031208802D9BF5
:1017F30003120880699B03120880018B041208807E
:10180300198B041208804FC4031208809EC403126C
:10181300088040C603120880FEC70312088046C82A
:101823000312088068C90312088099CA031208804A
:10183300BBCA0312088017CB0312088099CB03128B
:10184300088068E40212088089E40212088013E524
:101853000212088098E50212088014E6021208803A
:101863007DE602120880C9E60212088048E70212E8
:101873000880DAE70212088066E802120880A8E806
:101883000212088014ED0212088094EE02120880FE
:101893006AEF0212088099EF0212088084F10212A3
:1018A300088004F402120880BDF402120880DAF5FD
:1018B3000212088031F90212088041F902120880ED
:1018C300A2FA021208802EFB0212088057FC0212B1
:1018D300088048FD02120880CAFD021208800080B9
:1018E30003120880BA80031208802C810312088037
:1018F300C88103120880388203120880F18403121E
:101903000880C88503120880358603120880B287D1
:10191300031208807C8803120880EC880312088075
:10192300B58A03120880C88B03120880618C0312E6
:101933000880278D031208809DE203120880F1E2DC
:101943000312088049E30312088094E3031208801A
:10195300F6E30312088062E40312088015E503121C
:10196300088056E5031208806CE503120880C8E579
:101973000312088006E60312088000800412088020
:10198300318004120880EB80041208805181041214
:10199300088028F103120880B4F203120880C58C72
:1019A30004120880D68C04120880DA81041208809D
:1019B300E88104120880E97F001208806B8A041210
:1019C30008807B8A04120880968A04120880F78AAA
:1019D300041208809688041208801B890412088068
:1019E3007F8904120880848704120880A687041262
:1019F30008801088041208801B88041208805F88FE
:101A030004120880D4F601120880E2F6011208805D
:101A130023F70112088044F701120880C1F701126D
:101A23000880C1F801120880E3F8011208804FF919
:101A3300011208806AF90112088085F901120880F1
:101A43008FF90112088099F901120880ACF901128B
:101A53000880C5F90112088061FA011208801DFB94
:101A63000112088094FB011208800EFC0112088009
:101A73005AFC0112088000FD01120880DCFD0112EE
:101A8300088037E60312088045E603120880BFE6A4
:101A930003120880A3E7031208805CE9031208809D
:101AA300F08C04120880CDCB0312088039CC0312CA
:101AB3000880F8CC0312088002CE031208805BCFA3
:101AC30003120880B6CF031208800BD003120880DC
:101AD30014D00312088026D00312088090D003127A
:101AE3000880A4D0031208806BD503120880C0D5E8
:101AF30003120880BCD703120880EED703120880B4
:101B030010D80312088029D80312088042D8031280
:101B130008804CD903120880E7D903120880928306
:101B230004120880B68304120880CF83041208804D
:101B3300028404120880338404120880618404122E
:101B43000880C38404120880D28404120880DC84D1
:101B530004120880E98404120880E0F30312088069
:101B630006F40312088043F40312088052F40312AC
:101B7300088071F403120880D9F403120880E2F498
:101B83000312088041F50312088065F503120880EB
:101B930024F60312088031F60312088042F603127A
:101BA3000880268C04120880438C041208805EDAB5
:101BB30003120880BCDB03120880C9DB0312088010
:101BC300DCDB03120880FBDB0312088011DC031249
:101BD300088025DC031208809ADC03120880FFDCEE
:101BE30003120880AFDD0312088084DE031208802D
:101BF30094DE03120880A3DE0312088054FF03124D
:101C0300088078FF03120880A0FF03120880C8FF32
:101C13000312088070F60312088097F603120880F7
:101C2300B8F6031208801DF703120880D6F80312D2
:101C33000880EFF803120880FBF8031208800FF9FD
:101C4300031208802DF90312088037F90312088064
:101C530041F90312088054F903120880A7F903120B
:101C63000880E0F9031208800FFA031208805DFA76
:101C730003120880ACFA03120880C7FA0312088023
:101C8300D1FA03120880E2FA0312088028FB031238
:101C9300088086FF0112088013BB031208803DBB36
:101CA3000312088059BB031208806CBB031208801F
:101CB30082BB03120880DFBB0312088012BC03122D
:101CC30008804EC00312088074C103120880A7C1A4
:101CD30003120880F3C1031208801FC30312088094
:101CE30047C3031208805CC3031208806CC303124A
:101CF3000880B0C30312088011C40312088021C4F2
:101D0300031208805186041208806C86041208802E
:101D1300958604120880AF8604120880D4860412C4
:101D23000880F386041208800B8704120880398721
:101D330004120880538704120880E28B041208807F
:101D4300C1E903120880C8E903120880D4EA031228
:101D5300088004EB031208802AEB031208804DEB82
:101D6300031208806FEB03120880A9EB03120880AB
:101D73000FEC0312088048EC0312088094EC031262
:101D83000880C1EC03120880E1EC0312088065FDB2
:101D9300031208807DFD031208806BFE0312088086
:101DA3004AFF03120880D67E00120880487F001283
:101DB3000880867F00120880C77F00120880DCDE5F
:101DC30003120880FBDE031208804ADF0312088037
:101DD30066DF0312088097DF03120880A4DF031273
:101DE3000880B1DF031208809DE003120880DBE066
:101DF30003120880EBE103120880F6E10312088066
:101E030008E20312088011E2031208801BE20312A6
:101E13000880AED003120880F3D40312088001D5E2
:101E230003120880988C04120880628C04120880C4
:101E3300D7FF01120880328D0412088082D6021265
:101E43000880D6D5021208801CD402120880CCD197
:101E53000212088053D102120880FAD002120880BD
:101E63008AD00212088061D00212088041CE021289
:101E730008800DCE02120880DACD02120880BECD92
:101E830002120880D7CC021208808FCC021208807D
:101E9300DACA021208805ACA0212088057CA02120A
:101EA300088058C90212088026C90212088063C834
:101EB300021208808EC6021208801FC60212088012
:101EC3004CE202120880FFE002120880AADE02122E
:101ED300088040DE02120880F8DD02120880F1C596
:101EE30002120880EEC502120880DBC502120880C8
:101EF3006ADD0212088086C50212088075C50212C7
:101F0300088067C40212088031C4021208805DDDB4
:101F130002120880BCB603120880DFC302120880D5
:101F230080C3021208804FC30212088017C0021236
:101F33000880D7BF02120880CBBF021208802BBFD4
:101F4300021208806BBE02120880EDBB02120880E9
:101F53007EB9021208803CB90212088010B802123E
:101F63000880C5B70212088004B702120880D7B6EA
:101F730002120880B0B5021208801AB60212088055
:101F830057DA02120880EAB50212088035A6030068
:101F9300000080FBE473000000000000000000006C
:101FA300000000000000101010101010000030306E
:101FB3000000001428500000000000000000000092
:101FC3000000002828FC284850FC50500000000066
:101FD300103854543018145454381000000000447E
:101FE300A8A8B0541A2A2A44000000000020505028
:101FF30060ACA898927C000000606020C0000000E4
:102003000000000000000004080810101010101059
:1020130008080400000040201008040810204000B5
:1020230000000000001010D63838D6101000000051
:10203300000000101010FE1010100000000000003F
:102043000000000000000000606020C000000000ED
:102053000000FC0000000000000000000000000081
:10206300000000006060000000020404040808107F
:1020730010202020400000000030488484848484A1
:102083004830000000000010701010101010107C79
:10209300000000000038444404081020447C000081
:1020A300000000384444180404444438000000008D
:1020B300080818284848887C081C00000000007C99
:1020C300404078440444443800000000003C44800D
:1020D300B8C48484847800000000007C444808105D
:1020E3001010101000000000007884844878848465
:1020F30084780000000000788484848C740488F061
:10210300000000000000003030000000303000000C
:10211300000000000000100000000010102000006C
:1021230004081020402010080400000000000000F4
:1021330000FC0000FC00000000000000402010082C
:1021430004081020400000000000788484840810F4
:1021530010003030000000000038449AAAAAAAB444
:10216300423C00000000001010282828384444EEA8
:102173000000000000F844447844444444F800005C
:102183000000003C448480808080443800000000CC
:1021930000F048444444444448F00000000000FC7C
:1021A30044404878484044FC0000000000FC4240A2
:1021B3004878484040E000000000003C44848080B0
:1021C3008E8444380000000000EE4444447C4444C0
:1021D30044EE00000000007C101010101010107C62
:1021E30000000000007C101010101010101090E080
:1021F300000000EE44485070484844EE00000000E0
:1022030000E040404040404044FC0000000000EE3D
:102213006C6C6C54545454D60000000000EE64649B
:102223005454544C4CE4000000000030488484842F
:10223300848448300000000000F84444447840405F
:1022430040E00000000000304884848484B44838AF
:102253000C00000000F844447850484844E600006D
:102263000000003C444020180404447800000000AF
:1022730000FE92101010101010380000000000EE45
:1022830044444444444444380000000000EE4444C1
:102293002828282810100000000000D65454545455
:1022A3006C2828280000000000EE44282810282865
:1022B30044EE0000000000EE4428281010101038EF
:1022C30000000000007C88081020204044FC00002F
:1022D300001C101010101010101010101C000070B3
:1022E300101010101010101010107000007010104B
:1022F30010101010101010107000001028000000B3
:1023030000000000000000000000000000000000CA
:102313000000000000FE00606020C000000000001C
:102323000000000000000000000038441C24443E6C
:102333000000000000C0404078444444447800005A
:102343000000000000003C4440404438000000000E
:10235300000C04043C444444443E000000000000DC
:10236300000038447C40443800000000001C242056
:10237300F8202020207800000000000000003C48E6
:10238300483040784438000000C04040586444441A
:1023930044EE000000000010000070101010107CCC
:1023A300000000000008000038080808080808704A
:1023B300000000C040405C48507048EC0000000042
:1023C3000070101010101010107C000000000000AE
:1023D3000000F854545454D60000000000000000DC
:1023E300D864444444EE0000000000000000384478
:1023F300444444380000000000000000F844444412
:10240300447840E00000000000003C444444443C65
:10241300040E000000000000EC30202020F8000033
:102423000000000000003C44300844780000000035
:10243300000010107C101010100C000000000000B1
:102443000000CC444444443E00000000000000006F
:10245300EE44282828100000000000000000D65495
:10246300545428280000000000000000DC483030ED
:1024730048EC0000000000000000EE442828101083
:1024830020E00000000000007C481010247C0000C5
:102493001010101010101010101010101010000158
:1024A30036360101000102010001030100010401AC
:1024B300060605020000070100340801000F0904A5
:1024C30001010D0100FF0E080000170200001901B1
:1024D30000FF1A0100011B0100FE1C0100081D0280
:1024E30000001F010001200100012102000023015F
:1024F300000F240200002601000127010008280222
:1025030000FF2A0100072B0102402C0100002D01CE
:1025130000012E0100012F0100FF30010B1C3108C7
:1025230000003A0100083B01000F2F0100000101E8
:1025330071010101010111010101310101010101D8
:102543008001100161013B001400630173017201FA
:10255300620143010001130106013D01350004013D
:102563001201000100010001000104010401330113
:1025730033013C01440132013600000100016501D1
:102583000001350081010001050182018301000181
:1025930003027102300160021102700201020202A1
:1025A30002028002100261023A00410063027302D8
:1025B30072026202430200021302380000020002A8
:1025C30004021202000200020002000204020402DA
:1025D300370037003C0244020002390000020002C7
:1025E30065020002350281020002050282028302B3
:1025F300000203007100300160001100700031021D
:1026030020035004800010006100000014006300E8
:102613007300720062004300000013000600000014
:10262300000004001200000000000000000004008D
:102633000400370037003C024400000000000000A3
:102643000000650000003500810000000500000067
:10265300830000000103710301030103010301036C
:102663000103220302030103100300030003000319
:1026730000030003000300034203000324030603D3
:102683000003000304031203250323032503230389
:1026930004030403000300030003440300030003D3
:1026A30023030003650321003503810300030503AE
:1026B3000003000300030304710402046004110413
:1026C30070040204020401040204100461040004FF
:1026D30014046304730472046204430400041304C3
:1026E30006040004000404041204000400040004AB
:1026F30000045104640000040004000444040004C2
:10270300000400040004650400043504810464002B
:102713000504000483040004C9EEDBDACAD0B0B2B6
:10272300C1AAB5C2BFC6BCBCD3C3BBA7B5C7C2BCD5
:10273300D5CABAC5C3DCC2EBC8B7B6A8C8A1CFFB1C
:10274300D7A8D2B5D7A8D7A2CEDECFDFCDA8D1B632
:10275300B3CFD0C5C1A2D7E3B4B4D0C2D6C2D4B626
:10276300C7BFB4F3D4ADA3BA00360001000600001E
:10277300000F000000000000000000000000000344
:10278300FFFF00000403FFFF0000FFFF0FF4010041
:1027930005C4040320000100000B0000000000003A
:1027A300000003010F0000F618130096180100F64D
:1027B30018020060180300661804006C1805007204
:1027C3001806007E18FFFF000001340E06640E0891
:1027D3005E0E0B700E10B00D023A0E05520E07403E
:1027E3000E0C160E0D280EFF000003EAF5E5D5D5F5
:1027F300C5B5A59595858575756565555545453566
:102803003525251515053C126C1242124812661225
:102813005A125412721278127E128A124E12361201
:10282300301200160F00000B150B020002220F32AC
:10283300000006261338133E130612441300120C2D
:102843001280139E13A413861392138C1340113A10
:102853001176117C11701128110C0E020B040B0A56
:102863000708000F00383C3E363B3B352B432C001A
:102873000119161816161523030000034948424D83
:102883001817250502303017181921301B1D1F306A
:10289300303016181920231A1C1E3074134A135093
:1028A300135C13561360128412981390129612023B
:1028B30004020101010109024C1152114611821156
:1028C30000000000000058116A1100BE040A0E0047
:1028D30004007F00E8030C00280000000000030848
:1028E300100C0A03080900040001FF1E1E0C050456
:1028F300080FC082C0838A828B83E0D2E7F012176D
:10290300C4023A6CC082C0837900122DC1125AD816
:10291300C082C08390033412485ED083D082C3E068
:102923009CA3E09D500C1261ACFAA3E0122938601D
:102933000109023A6CFBEA75F00BA4FAA8F075F0F2
:102943000BEBA428FB900336E02AF8A3E03B888234
:10295300F583E0540F2274F71203EA8908122DC19C
:10296300122E67ACF075F00BE9A42CF9900336E056
:1029730028FEA3E039FF7401650860067402650848
:1029830070208A828B83122E53123B3A740265089D
:10299300701B122D12122E9A70138E828F83E4F005
:1029A300800BEA2403FCEB122E35122E41EEFAEFD4
:1029B300FB120B40023AA474F41203EA126AD379AD
:1029C300008E828F83E06076890A890B8065E50A31
:1029D30075F00BA4FAA8F075F00BE50B12294570FE
:1029E30046E50A75F00BA4F8AAF075F00BE50B1297
:1029F3002E798E828F83E0850882850983122F5B6F
:102A0300850882850983A3123B3AEE2403FCEF1267
:102A13002E3E123A73125552AA08AB09120B407993
:102A230001900334124F67E50A2401F50AE50B34DC
:102A330000F50B122D1AE50A9AE50B9B4090023C18
:102A4300E474F51203EAEAFEEBFF740B120B211296
:102A53003A78750A01EC4D602BEC126AEFED125ACD
:102A6300D8123B327901120B4CE5084509606F859A
:102A73000882850983A3126ADD7902AA08AB0912C9
:102A83000B4C805AE5084509602B125ADC1241A60B
:102A9300123A74122E84700CEEFAEFFB120B52E909
:102AA300F50A80CBEE2403FA122DBC70317903EEC4
:102AB300FAEFFB80CA8E828F83A3E064FE7003A3C8
:102AC300E0F4700BEE24030A0A0A122DBC700CEE1C
:102AD300FAEFFB120B52E9F50A8003750A00A90A03
:102AE3007F0302060574F71203EA900334123AB423
:102AF300EA4B602FEA75F00BA4FAA8F075F00BEB24
:102B0300A428FBEAFEEBFF12157E900336123AB4BB
:102B1300900336124DAC6012EEFCEFFD79001214F7
:102B2300E28007900336E4F0A3F0023AA490033462
:102B3300124516C3EE98EF9922C082C083EC4D6014
:102B430005121DB880097C087D0079001214E20289
:102B53003A6C74F61203EA7900EA4B60187800883D
:102B630008125E1FEB1261A860047901780808E877
:102B7300C3940840EA023B4374F71203EA74F31266
:102B8300095FECFEEDFF851882851983E4F00412DA
:102B93000B21EAF0A3EB1252D87403120B21AC827F
:102BA300AD83EEFAEFFB120B64EEFAEFFB120B6A46
:102BB300023A9F74F71203EA74F312095FECFEED15
:102BC300FF851882851983E4F0EAFCEBFD74031298
:102BD3000B21122F547401120B21123B2E8E828F64
:102BE30083123B3A74FE68700374FF6960047901D1
:102BF30080027900023A9F74F71203EAEAFEEBFFC0
:102C0300122C587014122C638E828F83E0F4F88A8E
:102C1300828B83E058F0120B40A908023AA474F7A0
:102C23001203EAEAFEEBFF7508008E828F83E060F1
:102C330022122C58701D122C638A828B83E08F839F
:102C43008E82F8E058700CE0F88A828B83E048F0BB
:102C5300120B4080C4120B46E9F508740165082283
:102C6300126AE8122E6B122DADFAA3E039FB22741F
:102C7300F41203EA8A088B097C007D00122D1212DC
:102C83002E41122DD2126ADA7900850882850983D2
:102C9300A3E064FE7003A3E0F460717E007F008014
:102CA30062EEFAEF1229386057EEFAEFFBEA75F09D
:102CB3000BA4FAA8F075F00BEBA428FB900336E005
:102CC3002AF50AA3E03BF50B850882850983A31245
:102CD3005226850A82850B83A3E06A7003A3E06B07
:102CE300701EE50A2403FAE50B122DBD700AE50AEE
:102CF3002403FCE50B122E3E122DC67901125AEE67
:102D03001236B1122D1AEE9AEF9B4095023CE4EA7B
:102D130024030A0A0AEB229003341256C5C3227411
:102D2300F31203EA8A088B098A828B83A3126ADD72
:102D3300122DC1126ADA750C00122D12122DBD70FC
:102D4300547E007F008049122D9FFAA3E0398A82C6
:102D5300F583E0540F6036122D9FF50AA3E039F591
:102D63000BE50A2403FCE50B122E483400FB121D6D
:102D7300B2E964017017850A82850B83A312578613
:102D8300A3123B3A122DC6750C01125AEE1236B13C
:102D9300122B3040B2A90C7F05020605EEF8EFF9BD
:102DA300E875F00BA4F8122DAD22AAF075F00BE92B
:102DB300A42AF9900336E02822EF122E9422126AF5
:102DC300EEEB22122DD2125AE9EEF0A3EFF022E538
:102DD30008126AEFE5092274F51203EAEAFEEBFF33
:102DE3008E828F83A3126ADD7C007D00EE24030AAA
:102DF3000A0AEF122E41EEFAEFFB120B46E9F50A2F
:102E03007401650A7029126AE8122E67AAF075F038
:102E13000BE9122E79850882F583122E53122E8424
:102E2300700DE5082403FCE509122E35122E41022C
:102E33002AE13400FDEE2403FAEF22122E48340077
:102E4300FB120B64223400FDE5082403FAE5092292
:102E5300A3122E5822122E5C22E0F8A3E0F98E82F0
:102E63008F83A322122E6B223400F58312451AE8B6
:102E730075F00BA4F822122DB3F508A3E039F50978
:102E830022E8F0A3E9F0E5082403FAE509122E94F9
:102E930022122E9A6401223400FB120B6AE9227477
:102EA300F31203EA74E612095F126AD3750C017513
:102EB3000800750900750A00750B008518828519CD
:102EC30083E4F0EE2403FCEF3400FD7403120B21C2
:102ED300122F54E964017023740B120B21123B323D
:102EE3007401120B2112522A7003A3E06960518509
:102EF3001882851983858208858309740D120B2135
:102F0300E4122F5B740E120B21123B3A740D120B59
:102F130021AA82AB83120B88E96401700B740D1232
:102F23000B2185820A85830B780A1208B8AC08AD99
:102F330009EEFAEFFB120B5874021208CBE9F50CF9
:102F4300EEFAEFFB120B82A90C741A1208CB022DB6
:102F53009A123227120B8E22123AAF12451622C052
:102F630082C083780079008003123052122D1AE850
:102F73009AE99B5029E8FAE9FBEA75F00BA4FAAC4D
:102F8300F075F00BEBA42CFB900336E02AFCA3E0D6
:102F93003B8C82F583E0540F70CF79008002790176
:102FA300023A6CC082C08390056512456CEC75F0E3
:102FB30012A4FCA8F075F012EDA428FD79FF7A2B7A
:102FC3007B0C1214E2023A6C74F71203EAE9FEEA8C
:102FD300FF7A007B00780079008028E8FCE9FDECAB
:102FE30075F012A4FC85F00875F012EDA425081203
:102FF3003467C39E400AE0FCEFC39C40031235864E
:1030030012305212345B40D3023AA4C082C0837898
:103013000079008003123052123046501F12346B75
:10302300F470F2E875F012A4F8AAF075F012E9A4AE
:103033002AF9742B28FA740C39FB80047A007B007C
:10304300023A6C90056512351CC3E89AE99B22E8A5
:10305300240108E93400F92274F01203EA74F3122C
:10306300095F8A0A8B0B8C0C8D0D8908EC450D606A
:1030730016AA0CAB0D120BDC8A0E8B0FAE0EAF0F24
:10308300EE4F6003023119120BB28A0E8B0FA80E9A
:10309300A90FE8FEE9FFE849607C9028DF12317B45
:1030A30060227403650860067404650870167A0468
:1030B3007903120BAC9028DF12319240077A007B20
:1030C300000231789028DD12317B601B74016508A2
:1030D300600674026508700F7A027901120BAC90D6
:1030E30028DD12319250D68518828519837401F038
:1030F300120B21125552AC0CAD0D7403120B21129D
:103103003220740B120B21123A80123F1AE412552B
:103113003A1210808004EE4F604A780074FF25084D
:10312300C39404500278048E828F831255528E8288
:103133008F83A3A3A3A3E508F0E88E828F83A3A3C1
:10314300A3A3A312555A1202291235338E828F83F9
:10315300A3A3A3A3A3A3A3F012352A120AFE125A10
:10316300D2120B0A1231804005901187E4F0120F3E
:103173005AEEFAEFFB02452012567449227A04797B
:1031830000120BAC90056512618EEA98EB9922123E
:1031930031AB758305758265E493C398F8A3E49313
:1031A30099F9C3EA98EB9922E493F8740193F9220D
:1031B30074F21203EA74F312095F8A088B09ECFEB6
:1031C300EDFF750A00EEFAEFFB120BDC8A0C8B0D98
:1031D300A80CA90DE849603E88828983E0650870E0
:1031E30004A3E06509602F88828983A3A3A3A3E0D6
:1031F300C39405502112598085188285198374015F
:10320300F0120B21125984EEFCEFFD7403120B2113
:10321300123220750A01A90A740D02501E123227B8
:10322300120B9A22AA82AB83120B6485188285192A
:1032330083AA82AB832274F61203EA123275600FFB
:10324300A3A3A3A3E014C3940450047901800279D7
:1032530000023B4374F61203EA123275600FA3A314
:10326300A3A3E014C39402500479018002790002FD
:103273003B43120BD68A828B83E58245832274F605
:103283001203EA123275600BA3A3A3A3E0700479BF
:103293000180027900023B43C082C083EAFCEBFD5C
:1032A3007A007B00023A69C082C0837C007D000201
:1032B3003A6974F41203EA74F312095FEAFEEBFF4E
:1032C3008C0A8D0BC3EC94F8ED94FF4007EE4F701E
:1032D3000302336E750800750900802E85188285F8
:1032E30019837401F01236D9120B211236E76013D9
:1032F3007403120B21AC82AD83EEFAEFFB121DB205
:10330300E97049E5082401123507900565E4125672
:103313007CE50898E509995052E50875F012A4F880
:10332300AAF075F012E509A42AF91261C160D4EE7E
:103333004F70A974FF650A700474FF650B60C412B3
:1033430036C9650A7004A3E0650B70B7E50875F02C
:1033530012A4F508A8F075F012E509A428F509747C
:103363002B2508FA740C3509FB80047A007B0002D4
:103373003CDF74F41203EA74F312095F7508001258
:103383000BDC8A0A8B0BAE0AAF0BEE4F602A851853
:10339300828519837401123AA9F8A3E0F9740B1218
:1033A3000B21123BBD120B7C7C127D0079FFEEFAE0
:1033B300EFFB1214E2750801123180500990118756
:1033C3007401F0120F5AA908023CDF74F71203EAE2
:1033D300E9FE74FE6A700374FF6B78007900700570
:1033E300805212305212345B504AE8FCE9FDEC750E
:1033F300F012A4FCAFF075F012EDA42F123467F4B1
:1034030060E0E8FCE9FDEC75F012A4FC75F012ED48
:10341300A42FFD742B2CF582740C3DF583E06A70A8
:1034230003A3E06B70BC800912346B14C394044093
:10343300171230521230465018EE70EC12346B648F
:10344300016005E0640370E91236BAFAA3E0FB8079
:10345300047AFE7BFF023AA4900565124570C3E827
:103463009CE99D221235BB22E8FAE9FBEA75F012CA
:10347300A4FAACF075F012EBA42CFB742F2AF5829E
:10348300740C3BF583E022120BEE023A6CC082C04F
:1034930083790180F274F01203EA8A0A8B0B7A04AF
:1034A3007901120BAC8A0C8B0DEA450D603EEAC321
:1034B30033FAEB33FB12157E8A088B09AE08AF098A
:1034C300EE4F60237AFE7BFF120BF474FE6A7003E7
:1034D30074FF6B601B850882850983123AB4E50883
:1034E300240212350780E1750C0080047E007F0002
:1034F300850A82850B83E50CF0EEFAEFFB02452586
:10350300E5082407F508E5093400F5092290056567
:10351300124570C3EA9CEB9D22E493FA740193FB7A
:10352300221214D6740322125AE3E4F09086B022D6
:10353300E88E828F83A3A3A3A3A3A3A3A3123555CA
:103543007401123555A3F0EE2410125AE6E4F0A3E9
:10355300F022123F26A3A3A322C082C0837A007B5A
:103563000080041912358612351050101235A5C388
:10357300940550F0E970EC12358F80047A007B00DB
:10358300023A6CEA24010AEB3400FB22EA75F012DA
:10359300A4FA75F012EBA428FB742B2AFA740C3BE3
:1035A300FB22EAFCEBFDEC75F012A4FCA8F075F02D
:1035B30012EDA4281235BB22FD742F2CF582740C56
:1035C3003DF583E02274F71203EA74F312095F7E78
:1035D300007F0002366DE50875F017A4F8A9F01214
:1035E3006422FAA3E0FBEEF8EFF9E875F012A4F811
:1035F300ACF075F012E9A42C1236C86A7003A3E08C
:103603006B603FE50875F017A4F8AAF0EA1264218D
:10361300F8A3E0F97401120B21E0687003A3E069D9
:103623006020E50875F017A4F8EAF974A728FC747C
:103633000D39FD7403120B21AA82AB83121DB2E96B
:103643006014E50875F017A4F8A9F074A528FA74B6
:103653000D39FB12108C05089028E3E493F8E50874
:10366300C39850030235D91236B1900565126768C5
:103673005039EEF8EFF91236BAF47003A3E0F460B0
:10368300E68518828519837401F0EEF8EFF9E87581
:10369300F012A4F875F012E9A42AF91236D9120B24
:1036A300211236E760C175080080AD023A9FEE240F
:1036B300010EEF3400FF22E875F012A4F8AAF075AA
:1036C300F012E9A42AF91236CD22742B28F582745C
:1036D3000C39F583E022742D28F582740C391245D8
:1036E30014740B22E8F0A3E9123BC5120B94E922F0
:1036F300C082C08390033D744CF0A3740EF090031A
:103703003F7446F0A3740EF09003437466F0A37401
:103713000CF0023A6C74F71203EAEAFEEBFF900333
:1037230077E06408601BE0640460168E828F83E098
:10373300540364017048123A7312401BE06406702C
:103743003D8E828F83A3A3E064FE7003A3E0F46045
:103753002D8E828F83A3A3123B2E900368E06870A3
:1037630003A3E069700BEE2415F582EF1261A860E4
:1037730008120EFAE9F5088008120F0080F67508A2
:10378300C2EEFAEFFB121584022C1C74F41203EA46
:103793008A088B098A828B83E0F8A3E0FAE82AFA85
:1037A300E43400FB12157E8A0A8B0BAE0AAF0BEED4
:1037B3004F6063850882850983E0FC7D00790012F0
:1037C30014E28E828F83A3A3126ADD120F3C8E82D2
:1037D3008F83A3A3A3A3123AB4850882850983E048
:1037E300F8EE28F8EF3400123B368508828509830A
:1037F300A3E0C0E0EE240D125AD5D0E0F0120F4E34
:10380300EE240E125AD5E9125187E0C0E0EE2411DE
:10381300125AD5D0E0F0EEFAEFFB023CE474F61254
:1038230003EA74EB12095FEAFEEBFF124DA9600392
:103833000238C47A077B0012157E900339123AB41A
:10384300124DA960788E828F83120AFE90033A127A
:10385300401E120B0A1269A1C0E01238D0D0E0F06A
:10386300EE2405FAEF3400FB8A088B098A82F5837C
:10387300E0C0E01238CBD0E0123CDBE0C0E012380D
:10388300CBA3D0E0123B20120AFE85188285198350
:10389300120B0A88828983E0C0E07405120B21D0E1
:1038A300E0F0850882850983E0C0E07404120B21EF
:1038B300D0E0F07407120B21123A068006791080CB
:1038C3000279017415023B401238D0A322900339C8
:1038D300E0FAA3E0F5838A82A3A3A3A322C082C054
:1038E30083124DA9600D9003391256B3900339E446
:1038F300F0A3F0120E6A12102C023A6C74F0120349
:10390300EA74EB12095FECFEEDFF89087425120BD4
:1039130021780C120AC47429120B21E0F9742A12BB
:103923000B21E0FC742B120B21E0FD740F69700571
:10393300740F6C60129011E2E06402700579C102A9
:103943003A01E9C39C40F6900378780C120AE2E549
:103953000890037EF0E990037CF0ECA3F0ED900374
:103963007FF074FF6A700374FF6B701D9011EDE0BC
:10397300F47003A3E0F470051214F4800C9011EDBD
:10398300123A89E8F0A3E98007900375EAF0A3EB04
:10399300F0EE4F6017EEFAEFFB1210ECE9640170E2
:1039A3000BEEFCEFFD7A897B03121DB8900368E4EC
:1039B300F0A3F090036BF0A3F0900388F09011E272
:1039C300E06402700890037C740FF0A3F090037717
:1039D3007405F014120B21E4F0900378120AFE85AB
:1039E3001882851983120B0A90037EE0C0E07405E8
:1039F300120B21D0E0F07407120B21123A06741552
:103A0300024522E4123BC5121DE222C082C083900C
:103A13000338E07003121890120C36804CC082C039
:103A230083900338E09011867004E4F0802D7401D4
:103A3300F0900338E0F460237C41E0C394415002EA
:103A4300E0FCECF8E0C398F0EC75F0E8A4CCA8F047
:103A530075F003A428FD7A801245787A867B117964
:103A630041121DD08003120BE2D083D08202087D65
:103A7300EE125AE422E0F508A3E0F50922123A8493
:103A830022122E5CA3221245169003752274F7129C
:103A930003EAEB90037FF0120E588005740D1208B1
:103AA300CB7F01020605123AAFA3E022123B20A30B
:103AB30022EAF0A3EBF02274F71203EA74F8120976
:103AC3005FEAFEEBFF7900900377E06408704485BA
:103AD300188285198374FDF0A374FFF0120F3674F6
:103AE30002120B21123AB47405120B21E4123AAFFD
:103AF300E0C0E07404120B21D0E0123B1BC0E07461
:103B030006120B21D0E0F07407120B21E4123BC123
:103B1300120F787408023AA1123B20E022F08E8241
:103B23008F8322F08518828519832212451622E09D
:103B3300F8A3E0F9125AE3E8F0A3E9F0221208CB64
:103B43007F02020605C082C08390034974F6F0A386
:103B5300740CF09003EF74D2F0A3740FF090034D44
:103B6300742CF0A3740DF090034F74F6F0A3740C4F
:103B7300F09003517432F0A3740DF0023A6C74F4B4
:103B83001203EA74F912095F8A088B098C0A8D0BF8
:103B93008518828519837808120AE27404120B21AE
:103BA300E9F07405120B21E4F07406120B21E41200
:103BB3003BC1120C1E7407023CE1E8F0A3E9123B7F
:103BC300C522123B26AA82AB832274F41203EA8A2B
:103BD300088B098A828B83125AF1EE4F7003023CE1
:103BE300D9900312124DAC60158A828B83A3A3E094
:103BF300F9EEFAEFFB90031312401E121F978E8209
:103C03008F83A3A3A3A3A3A3A3A3A3E064027074BA
:103C13008E828F83A3A3A3A3A3A3E0540270030202
:103C23003CAB850882850983A3A3E064E960798EB0
:103C3300828F83A3A3A3A3A3A3A3A3A3A3E070142B
:103C43009011E5E0048E828F83A3A3A3A3A3A3A370
:103C5300A3A3A3F08E828F83A3A3A3A3A3A3A3A34E
:103C6300A3A3E014123CDBA3A3A37404F09011E616
:103C730012552CE8F0A3E91266058B0BEA450B708D
:103C830003125FE38E828F83A3A3A3A3A3A3A3A3A0
:103C9300A3E0640260128E828F83A3A3A3A3A3A3D2
:103CA300A3A3A3E06406702E8E828F83A3A3A3A392
:103CB300A3A3E0A2E0501F850882850983A3A3E0A4
:103CC300F9EEFAEFFB121E788E828F83A3A3A3A3D0
:103CD300A3A3E054FEF08009123F2222740D1208C0
:103CE300CB7F0402060574EC1203EA74DD12095F4C
:103CF300EAFEEBFF8C088D097437120B21780C1246
:103D03000AC4750A007405120B21AC82AD83121E1E
:103D1300CC7412120B21E070087415120B21E060B1
:103D2300207405120B21E0A2E6501E8E828F83A31E
:103D3300A3A3A3A3A3A3A3A3125226120FAEE960C6
:103D4300087903121DA0023F087405120B21E054E9
:103D53000C64047005750B018003750B00E0A2E58C
:103D63005035750A01E50BA2E0402C120F3C8A1076
:103D73008B11A810A911123A73E0687003A3E069CC
:103D830060157405120B21126AE4125222121E846A
:103D9300E96004790480AC7405120B21E0A2E650BB
:103DA300227406120B21E0540370187405120B21C0
:103DB300E0540C640C600CE0540C6408600575104E
:103DC3000180037510007405120B21E05403F8748D
:103DD3000268700C126AE412522212150C023F0898
:103DE300740168703AE510A2E05003123F107405A5
:103DF300120B21A882A9837403120B21E8F0A3E913
:103E030012450A851882851983123F1AE0C0E074AF
:103E130002120B21D0E0123BC1121F68023F08E8D7
:103E23006003023F0890035FE0640170108E828F8D
:103E330083A3A3A3A3A3A3E07003023D967422125A
:103E43000B21740212450A741A120B21123B3AE534
:103E530010A2E050087405120B21123F10E50BA2CB
:103E6300E0506AEE240FF582EF1261A8C0E07417E8
:103E7300120B21D0E0F0900314124DAC7003023FFB
:103E830008120F3C8A128B13A812A913741A120B6F
:103E930021E0687003A3E069706B780C1208B078B6
:103EA3000A1208BC78081208B8A910740C120B2166
:103EB300AC82AD837421120B21AA82AB83900314CD
:103EC30012401B121F9774071208CB8038780C120C
:103ED30008B0780A1208BC78081208B89003751263
:103EE30006D4EE2412F582EF125ED67423120B2150
:103EF300AC82AD83740E120B21AA82AB83121E6CAB
:103F030074091208CB74231208CB0265D0126AE439
:103F13001256C1121EC622E8F0A3E9123F22221252
:103F23003F2622F08E828F83A3A3A3A3A3A322748D
:103F3300F71203EA12177C023AA474F71203EA1287
:103F43001782023AA474F71203EA12178E023AA4F4
:103F5300C082C083121788023A6C74F71203EA1204
:103F63001794023AA474F71203EA7409120B21E0BE
:103F7300F50878081208BC1217A07401023AA1C010
:103F830082C0831217AC023A6CC082C0831217B28C
:103F9300023A6C74F71203EA1217B8023AA474F7E0
:103FA3001203EAEAFEEBFF890874016508701479CD
:103FB30000120D6E9028EEE493FC7900EEFAEFFB0D
:103FC300120CE4023AA474F41203EA74F912095FBE
:103FD300E9FE8A088B098C0A8D0B7413120B2112CC
:103FE300522690069E124DAC6027EE8518828519E5
:103FF30083F07401120B217808120AE2EAF8EBF954
:104003007405120B21123BBD90069E12401B121F1A
:1040130097023BB8FB90034BE0F8A3E0F58388825B
:1040230022C082C0831217E8023A6C74F71203EAC3
:10403300901189E0F97E00800B126194540D6401A4
:104043007001190E1242285003E970ED023AA4746C
:10405300F71203EA90118AE0F97E00800B12619453
:10406300548D64817001190E1242285003E970EDDA
:10407300023AA474F21203EA890BE975F006A42448
:104083000CF508E5F012350B8A0CE508250CFAE56A
:10409300093400FB12157E8A0C8B0DAE0CAF0DEEAE
:1040A3004F6027AC08AD0979001214E2123A73E5A8
:1040B3000BF0EE2508F8EF3509F98E828F83A3A361
:1040C300A3A3A3A3A3A3A3123B3AEEFAEFFB0250CD
:1040D3002174F61203EAEAFEEBFF120CC09011887A
:1040E300E0F8E9C3984009900345125226120CC622
:1040F300EE2402F8EF1258369003471256F090035D
:1041030047E004F0EEFAEFFB120CCC850882850938
:1041130083E0025CECC082C0837900900345800198
:10412300091252268A828B83E582458370F2023A12
:104133006C74F71203EAEAFEEBFFEE4F605690034E
:1041430045124DAC604E888289837A007B00EE6510
:10415300827003EF6583600FAA82AB8312419AE5F5
:10416300824583602F80E79003451241A668700261
:10417300EF698E828F837008123B2E900345800374
:104183001265E2123B3AEEFAEFFB121F38EEFAEF3A
:10419300FB121584023AA412419E2212451A888208
:1041A300898322124516EE22C082C0839003458084
:1041B3000488828983124DAC600B888289831248FC
:1041C3005EEC4D70EC8A828B83E4F0A3F0E84960E7
:1041D30006888289838003900345123AB4023A6CBD
:1041E30074F71203EA90034580048A828B83124298
:1041F300234B60257E0080010E12422850ECEE75A1
:10420300F006A4FCADF0EA2CFCEB3DFDEC2410F52C
:1042130082ED12427870E180047A007B00023AA4B6
:104223001256C5EA22124281EEC3982274F7120392
:10423300EA7D0080010D12427DEDC3985034ED7587
:10424300F006A4FEA8F0E8FFEA2EFEEB3FFFEE2403
:1042530010F582EF12427870DCED75F006A4FEE8EB
:10426300FFEA2EFAEB3FFBEA2411F582EB1261A879
:104273004CF0023AA41261B4692212428122126AFA
:10428300EEEB3400F583E0F82274F61203EA120D24
:10429300E67A007B008025EAF8EBF9E875F006A4DE
:1042A300F8ACF075F006E9A42C12569A1269AFA384
:1042B300E4125790F0A31269B5126B2C9028D9120F
:1042C300318A40D37A007B00801C8A088B097403EF
:1042D3007808120A6012514EA374FEF0A30412551B
:1042E30070A3E4126B2C9028E212432B40DC7A007B
:1042F3007B00801D8A088B0974037808120A607496
:10430300CD125E20741012666774FEF0A304126B64
:104313002C9028E812432B40DB9028ECE493900385
:1043230053F0124335023B43E493F8C3EA98EB940A
:1043330000227CE87D037A107B009003C2E0F9122F
:1043430016382274F01203EA74F512095F8A088B97
:1043530009890A8C0BE9A2E050147508FC7509FF62
:10436300A2E15005D2E4024408D2E3024408125009
:104373000D7003A3E069700579000244D5AC0A7996
:1043830002AA08AB09120DC2E960EDE50AF50C7843
:104393000C1208BC79027CFE7DFFAA08AB09124D02
:1043A300881208CBE960030244D3E50AC2E5F50AA3
:1043B3009003B5E07051E50AA2E6404B7403120B7B
:1043C30021AC82AD83AA08AB09120B70E9703212DB
:1043D30046A98A0C8B0DA80CA90DE8FEE9FFE84954
:1043E3006025EE24020A0AEF122E9A601AEE2402C6
:1043F300FCEF3400FD7403120B21AA82AB83121D60
:10440300B8E50AD2E5F50A900348E0F50C90036895
:10441300E0F50EA3E0F50F780E1208B87D017C00DD
:10442300900348E0F9AA0EAB0F120D7A740212083A
:10443300CBE9F8900348E004F0E860030244D3E5D5
:104443000AA2E55004740E80027406C0E0740112DF
:104453000B21D0E0125B028A0E8B0FAE0EAF0FEE74
:104463004F60691244F312450A888289837401F00C
:104473007478550AA3126AF4E50C126AF4A3E508EA
:10448300F0E5091244E2E4F0E50AA2E5500F7403F3
:10449300120B21AC82AD83E824061244D98E828F9D
:1044A30083A3A374FDF0A374FFF0E50B60159028BC
:1044B300EFE493F8E50BC3985009EE2413125AD591
:1044C300E50BF0EEFAEFFB120C1280067910800276
:1044D30079C7740B8049FAE93400FB121DB82288AE
:1044E300828983A3A3A3A31244EE22125869A322B1
:1044F300EE2417125AE67401F0120F36EE241A1244
:104503005AE6EAF0A3EB22F0126AE83400124514EB
:1045130022F58312451A22E0F8A3E0F922740D1262
:1045230008CB7F0802060574F61203EA7A007B10B3
:10453300125FF060089003D47401F0802990073F64
:10454300E064019011E37006E0FC79018004E0FC73
:1045530079037A007B00120CE49028D712456C7A19
:10456300007B1012457A023B4312457022E493FC10
:10457300740193FD227B009003C2E0F912163222EC
:1045830074EC1203EA8A088B098C0C8D0D890E7466
:1045930014120B21124F677416120B21E0F510A3AE
:1045A300E0F511120FAEE960077AFF7BFF0246A622
:1045B3009011E2E0640260030246997900AA08AB15
:1045C30009120DC8A90E120DBC8A128B13AE12AFBD
:1045D30013EE4F70030246818E828F83A3A3A3A39E
:1045E300A3E064018E828F83A3A370691252268E87
:1045F300828F83A3A3A3A3A3A3E0541860439028AB
:10460300EDE4938E828F83A3A3A3A3F0EA650C70DA
:1046130003EB650D6014EA650A7003EB650B600A32
:10462300EA65107003EB6511701F78101208B8ACBF
:104633000AAD0BAA0CAB0D1210AA74021208CB80A0
:1046430008900367125FDAA3F074FE6A700374FFC5
:104653006B601D804EA3A3A3E0640360298E828F49
:1046630083A3A3A3A3A3E0640470057AFE0245AE6B
:104673008E828F83A3A3A3A3A3E064027008900395
:10468300B4E0640270101246A98B0BEA450B600676
:10469300AA08AB09800DAA08AB0990034912401B75
:1046A300121F970265D0900375124D8E12106E2261
:1046B30074F71203EAEAFEEBFF120BC4E9700AEE89
:1046C300FAEFFB120BD0E96006EEFAEFFB80047AF7
:1046D300FE7BFF023AA474F01203EA8A0A8B0B8C66
:1046E3000E8D0F8909750800120FAEE9790060037A
:1046F300024850AA0AAB0B120DC8A909120DBC8AB5
:104703000C8B0DAE0CAF0DEE4F60198E828F83A311
:10471300A3A3A3A3E0640270559003B4E064027002
:104723000302484EAA0AAB0B90034F12401B121F01
:1047330097120BD68A0C8B0DA80CA90DE8497003B0
:1047430002484E88828983A3A3A3A3A3E0A2E040E7
:104753000302484E750C01A2E150687901AC0AAD21
:104763000BAA0EAB0F120D14E9706402484E8E8231
:104773008F83A3A3A3A3A3E064037005750C028036
:10478300528E828F83A3A3A3A3A3E06401600302D9
:10479300484E90037512485E8E828F83124BB38A04
:1047A3000C8B0DA80CA90DE84960D19028E6E49381
:1047B300FA88828983E0C39A50C2A3E06003024867
:1047C3004E80B988828983A3A3A3A3A3D2E1F0EE89
:1047D3004F603A8E828F83A3A3A3A3A3A3E05418AD
:1047E300602B7508018E828F83A3A31206D4750CE8
:1047F300FE750DFF780C1208B87900AC0AAD0BAA50
:104803000EAB0F120DDA74041208CB803E900368CE
:10481300E0650E7004A3E0650F70149028EEE49336
:10482300FCA909AA0AAB0B120CE4750801801CA9A8
:104833000CAC0AAD0BAA0EAB0F120D14E9700C757C
:104843000801A909AA0AAB0B120D6EA90802452596
:10485300E50C2415F582E50D125AE912554622742A
:10486300EA1203EA74F012095F8A0C8B0D8C088D2F
:10487300097426120B21E0F514A3E0F51575120651
:104883009003F5124DAC602390037512485EAA089D
:10489300AB091210988A108B11EA4511600D8A82B8
:1048A3008B83A3E070057900024B9BE50C241DF577
:1048B3000EE50D3400F50F850E82124D98F5138821
:1048C300828983A3A3A3E0FA88828983A3A3A3A3F2
:1048D300E0F9EA2400FEE439FFAA08AB09120D74DB
:1048E300850E82850F83124BD6E029F50BE50AA2CC
:1048F300E5500375120E7487550A70177418550A1C
:104903006418600FE50C2417F582E50D1261A865A4
:104913001260077901121DA0808C530A78C3EE94AC
:10492300F8EF94FF501D7900EEFAEFFB124BA560F0
:104933001288828983A3A3A3A3A3A3E054186003CB
:104943000248A978081208B87D00124BC91208CB97
:10495300E9F874036870030248A9E86003024A1483
:104963007418550A7003024AC9E50AD2E0F50AA28F
:10497300E45004D2E1F50AA90A12521F124BA560B2
:104983005388828983A3A3A3A3A3A3E054186044F9
:1049930088828983A3A3A3A3A3E064017036E510EF
:1049A3004511603090037512485E88828983124BEB
:1049B300B38A0E8B0FA80EA90FE849601788828966
:1049C30083A3E0600F851082851183A3125CF750E7
:1049D300030248A9E50AF50E780E1208BC124BBC77
:1049E3001208CBE9702B7C007D008514828515832A
:1049F30074FFF0A3F0850C82850D83A3A3A3A3A367
:104A0300A3A3A3E06003124853A90B12521F12176A
:104A1300A6851482851583E0F47003A3E0F460395E
:104A23009003B4E0640270030248A9124F58E0FAFD
:104A3300A3E0124017121F97EA65087003EB65099C
:104A430060030248A9EEFAEF124017121F9785146C
:104A530082851583EAF0A3EBF078081208B87D018C
:104A6300124BC91208CBA90AEEFAEFFB120DC88A42
:104A7300088B09A808A909900368E0687003A3E0FC
:104A8300696003024B8CEEFAEFFB120BD68A088B9C
:104A930009A808A909E849606E88828983A3A3A3AA
:104AA300A3E06401600D88828983A3A3A3A3E064C8
:104AB300027054851882851983AC82AD83EEFAEFB8
:104AC300FB120B708055900361E0600FE50AF50E51
:104AD300780E1208BC124BBC1208CBE50AF50E780F
:104AE3000E1208BC79027CFE7DFFEEFAEFFB124D3D
:104AF300881208CBE96003024A1485148285158362
:104B030074FFF0A3024A5B120F36EAFCEBFD851833
:104B130082851983AA82AB83121DB8850C82850D09
:104B230083A3A3A3A3A3A3A3A3E06401700F1248C9
:104B3300537408120B21AA82AB83121DB8124D6263
:104B430012596E4430F50878081208BC7401120B30
:104B53002185820885830978081208B8740B120B23
:104B63002185820885830978081208B8E513F508BA
:104B730078081208BC7900EEFCEFFD12521F120DEB
:104B83000E74061208CB0248A9124D62125AD812AB
:104B93004BD6E50BF0120F4E74101208CB7F0E02AA
:104BA3000605120DBC8A0E8B0FA80EA90FE8492229
:104BB300A3A31256C5121098227901AC08AD0912AD
:104BC30056BA124D8822AC0BA9131256BA120D7A9B
:104BD300740222125976A3A3A3A32274F01203EA48
:104BE30074F012095F8A0C8B0DECFAEDFB750F085C
:104BF3009003F5124DAC6014125CF08A828B83E54E
:104C03008245836007A3E07003024D5D124D623459
:104C130000124D98F50B88828983124D6BE0FBECF3
:104C23002400FEE43BFF88828983A3A3124D6BA378
:104C3300A3E0FBECF508E43BF50988828983A3A391
:104C4300A3A3A3A3A3E0F50EE50AA2E45003750F03
:104C530010A2E550067408250FF50F748F550A70DE
:104C63000FE50C2417F582E50D1261A8650F6008A6
:104C73007901121DA0024D5D530A707800E50AA266
:104C8300E45022124D621261A82408FCA3E0340010
:104C9300FD7408120B21AA82AB83121DB87808E5B4
:104CA3000AC2E4F50AE50AA2E55028124D62126130
:104CB300A828F8A3E03400F9E82408FCE93400FD4F
:104CC300851882851983AA82AB83121DB8E50AC2AF
:104CD300E5F50AAC0EA90BEEFAEFFB120D80E9F82D
:104CE3007403686075900368E06E7003A3E06F60FF
:104CF3005EE87054E50AF50F780F1208BC124D797F
:104D03001208CBE97054780A1208BC7401120B2103
:104D130085820C85830D780C1208B8740B120B2155
:104D230085820C85830D780C1208B8E50BF50A789B
:104D33000A1208BCA90EAC08AD09EEFAEFFB120D7E
:104D43000E74061208CB8012740468700D80B77855
:104D53000A1208BC124D791208CB7410024522E5E1
:104D63000C241DF582E50D22A3A3A3E0FC88828910
:104D730083A3A3A3A3227901124F5F125AE9124D11
:104D83008E124D8822120D38740122E0FCA3E0FD3F
:104D9300AA08AB0922F58312419EA3E0F50A888293
:104DA3008983A3A3E0229003391257212274E812C6
:104DB30003EA74F512095FEAFEEBFF8C088D09899B
:104DC300147423120B21E0F50F7424120B21E0F568
:104DD30012A3E0F5137426120B21E0F516A3E0F5F8
:104DE300177428120B21E0F50EA90F120D868A10F5
:104DF3008B117401120B217408F0E50EA2E4500329
:104E03007410F0E50EA2E55004E02408F085188242
:104E1300851983AA82AB83120F968A0C8B0DEA4500
:104E23000D7003024F3FEA2417F582EB124F511224
:104E33000F36E50C241AF582E50D125AD8123AB44E
:104E43007403120B21AC82AD83AA10AB11120B7049
:104E5300E9601D124F497403120B21A882A983E54F
:104E63000C2418F582E50D125AD8E8F0A3E9802442
:104E7300E50EA2E4501FE5106E7003E5116F701587
:104E8300124F49E50C2418F582E50D125AD8E512A4
:104E9300F0A3E513F0124F58124F67850A82F5838A
:104EA3007402F0A3E50E124F6FE50FF0EE850A8250
:104EB300850B83A3A3A3F0EF850A82850B83A3A3AA
:104EC300A3A3124F6FA3A3A3E508F0E509850A8204
:104ED300850B83A3A3A3A3A3A3F0AA10AB11120D65
:104EE30074E92514850A82850B83A3A3A3A3A3A333
:104EF300A3F0750800E50EA2E45011AC12AD13E562
:104F03000A2408FAE50B1244DB750808E50EA2E54E
:104F13005014AC16AD17E50A2508F8E50B3400F973
:104F2300E824081244D9850C82850D83A3A3E510D8
:104F3300F0A3E511F0AA0CAB0D120C12740B1208BE
:104F4300CB7F10020605E50C2416F582E50D125AF7
:104F5300E97401F022124F5F125AE922E50C126A3A
:104F6300EFE50D22E0F50AA3E0F50B22F0850A82B6
:104F7300850B83A3A32274F21203EA8A088B09EC3C
:104F8300FEEDFF890A790012500D7003A3E06970EA
:104F93000479018073750B01900368E06508700460
:104FA300A3E06509601F750B00780B1208BCA90A02
:104FB300EEFCEFFDAA08AB09120FEA74011208CB4D
:104FC300E9F50B80417900EEFAEFFB120DBCEA4BD9
:104FD300602B8A828B83A3A3A3A3A3A3E0541860AB
:104FE3001C7508FE7509FF78081208B88A828B833E
:104FF300A3A31206D41269041208CB80097901EE27
:10500300FAEFFB120C96A90B8014120DC88A0C8BB5
:105013000DA80CA90D900368E068221208CB7F0647
:1050230002060574F41203EA75081575090F7A1060
:1050330012660C8B0BEA450B700312433590035336
:10504300E014F0700C9028ECE493900353F0120DED
:10505300D47E007F00806C850882850983A3A3A387
:10506300A3E06059F46056E5082404F582E50912CB
:105073005FD47049850882850983A3A3A3A3A3E012
:1050830064037019790285088285098312485E8555
:105093000882850983A3A3125226120D1485088260
:1050A300850983A3A3A3A3A3E064016010850882F9
:1050B30085098374FEF0A304125180E4F01236B123
:1050C3001235039028DB126768408C7E007F0080D6
:1050D30039120EDC8E088F0974037808120A607483
:1050E3008D2508FC74103509FD7A207B0D120ECA3C
:1050F300EA4B70DD8E088F0974037808120A601278
:10510300514E1269AFE4F01236B19028E2E493F8FD
:10511300C3EE98EF9400501B8E088F097403780830
:10512300120A60125156E82407F582E9125FD4701F
:10513300D680A17E007F00800A125161600214F0C4
:105143001236B112676540F1023CE412515688826F
:10515300898322748D2508F874103509F922EEF835
:10516300EFF9E875F006A4F8AAF075F006E9A42AA9
:10517300F9742D28F582741039F583E022125187D2
:10518300A3A3A322F0850882850983A3A32274F72E
:105193001203EA74E112095FECFEEDFF750800EEFD
:1051A3004F60728A828B83E0241C126005124DAC1F
:1051B30060638A828B83125226851882851983AC99
:1051C30082AD83EA241BF582EB125ED6EA241CF53A
:1051D30082EB125222120F1E740B120B2112522A4F
:1051E3007003A3E069702E7402120B21E064017056
:1051F30024741D120B2112401BE064017017741DEF
:10520300120B2112401DA3A3E0F88E828F83E06866
:105213007003750801A908741F023AA1124F5F3485
:1052230000F5831256C522122E58E0682274F41238
:1052330003EAE97024790090034D12401B121F9773
:105243008A0A8B0BAE0AAF0B74FE6E700374FF6F8A
:10525300701A9028E9E4936013790190034D12408A
:105263001B121F978A0A8B0BAE0AAF0B120F5A023F
:10527300381974F61203EA74F312095F1214F48AEC
:10528300088B09AE08AF09900368E06E7003A3E0D2
:105293006F60E9120F42EA6E7002EB6F60DEEEFAA6
:1052A300EFFB120FAEE970D4EE4F60D08518828504
:1052B3001983E4F004120B21EEF0A3EF1252D8E9A4
:1052C30070BA74FE6E700374FF6F60B0EEFAEFFB9A
:1052D300740D023B40123BC5120B8822C082C0836F
:1052E300120F5A023A6C7F0A02060574F21203EA9D
:1052F300EAFEEBFF8C0A8D0B8908740E120B21E07A
:10530300F50974FC6E700374FF6F70057900025029
:10531300217900120DC88A0C8B0DAE0CAF0D9003D2
:1053230068E06E7003A3E06F7006E509A2E650DC47
:10533300A9091267F2706179007AFE7BFF1267F2A6
:10534300705674185509700302542578007900804B
:10535300031230529028DB1230494003025425E8EF
:10536300FAE9FBEA75F007A4FAACF075F007EBA4D1
:105373002CFB741B2AF582740F3BF583E0541870E1
:10538300D0E875F007A4F8AAF075F007E9A42AF9A4
:10539300741528F8740F39F988828983A3A3A3A30A
:1053A300A3A3E05418600974185509700302530F3E
:1053B30088828983EEF0A3EFF074FE650A700474AB
:1053C300FF650B600312554C88828983A3A3A3A3B3
:1053D300A3A3E509F0A2E0500D88828983A3A3A3C8
:1053E300A3A3A3D2E2F07401650888828983A3A3EF
:1053F300A3A3A370387401125570E0541860289069
:1054030028EDE49388828983A3A3A3A312553A12B8
:1054130010988B0DEA450D600302530F7800790055
:1054230080397902025311900367E080D7E0640169
:10543300700302530F88828983A3A3A3A3A3A3E0CA
:10544300541860079028EDE4938004900366E012FB
:1054530044E2E508F002530F1230529028E3E4933C
:10546300FAC3E89AE99400400302530F7A007B00E1
:10547300804BEAFCEBFDEC75F007A4FCAEF075F095
:1054830007EDA42EFD74172CF582740F3DF58312DE
:105493005AF1E8FCE9FDEC75F017A4FC85F00975F9
:1054A300F017EDA42509FD74A52CF582740D3DF5C7
:1054B30083E06E7003A3E06F609E1235869028DB55
:1054C30012351340AD12456CEC6A7002ED6B7088B7
:1054D300E875F017A4F8AAF075F017E9A42AF9748F
:1054E300A528FE740D39FF7C177D007900EEFAEFD5
:1054F300FB1214E28E828F8312555290037512555C
:105503002CA3A3A3A3A3A3E8F0A3E9125532740128
:10551300F0EE240E125AD5740112555A120229EED6
:10552300240D125AD5E8025457123A84A3A322F049
:10553300EE240F125AE622F0125543AA0AAB0B22AD
:10554300900375E0FCA3E0FD2288828983A3A3E591
:105553000AF0A3E50BF022F012555F229028E6E44F
:10556300932401F8E43400F97A027B00221244EE1A
:10557300A32274ED1203EA8A088B09890E1256A33B
:10558300400579050256711217EEAA08AB091257A6
:10559300759028D9125674650A7003E9650B700774
:1055A3007AFE7BFF1257759028D9E412567CE50AE0
:1055B30098E50B99400302566F1256806012E50A74
:1055C30075F006A4F875F006E50B1256CB12158498
:1055D300E50E6018E50A75F006A4F8AAF075F00662
:1055E300E50B1256F7701A7901025671E50A75F048
:1055F30006A4F8AAF075F006E50B1256D8E4F0A35A
:10560300F0E50A75F006A4F8AAF075F006E50B12AA
:105613005698A312598488828983A3AA82AB8312E2
:1056230056E68A828B83E0603F125680603A8E1082
:105633008F1175120078101208B4E50EC333FCE421
:1056430033FDE50A75F006A4F50AA8F075F006E542
:105653000BA428F50B7431250AF5827410350B124F
:1056630052241235241208CB79008002790702688C
:10567300081231ABE82290056512618F22E50A75A5
:10568300F006A4F8AAF075F006E50B1256D3F8A3BA
:10569300E0F9E84922A42A12582C88828983A3229C
:1056A300ECFEEDFF9028E4E493F8E9C39822F58338
:1056B3001256C512158422E50C126AEFE50D34006B
:1056C300F583E0FAA3E0FB221256D3FAA3E0FB2210
:1056D3001256D8E022A42AF9743128F582741039BD
:1056E300F58322E50EF09011E41256F022E0888251
:1056F3008983F022125850F50CE93400F50DE50EBC
:10570300C333FAE433FB12157E850C82850D83EADD
:10571300F0A3EBF0850C82850D83125721221245ED
:105723001AE8492274F41203EAECFEEDFF740C123A
:105733000B21123B2E88088909125775AC0AAD0B51
:10574300ECF8EDF99028D912577D5021E875F00651
:10575300A4F8AAF075F006E9125698E08E828F83BA
:10576300125790125786123B3A790080027904024D
:105773003CE4120D4A8A0A8B0B2212351CC3EC9AA5
:10578300ED9B2212451685088285098322125865EE
:105793002274F61203EA7E007F008028EEF8EFF908
:1057A300E875F006A4F8ACF075F006E9A42CF974DA
:1057B3002F28F58274101264136A7003A3E06B60E0
:1057C300571236B112676540D31267607002E96FF2
:1057D300704674FE6A700374FF6B703C7E007F003A
:1057E30080031236B1126765502E12516170F3EEC9
:1057F300F8EFF9E875F006A4F8125822125857602A
:105803001712583EF8E912583688821256B18508A5
:1058130082850983E4F0A3F0EEFAEFFB023B4375C4
:10582300F006E912582A22A42AF9742D28F87410D4
:1058330039F9223400F98808890922EEF8EFF9E8EA
:1058430075F006A4F875F006E91258502212582A8A
:10585300E8240422A3A374FE12586212572122F0F3
:10586300A30412586922F088828983A3A3A3A322E5
:1058730074F61203EAEA241DF582EB12596EF960FD
:105883004BEA241DF582EB1261A82402FCA3E03449
:1058930000FD1256A74003025961780080298C82CB
:1058A3008D83E0F508A3E0FFE5082400E43FF50954
:1058B300E833FEE433FF74752EF58274103FF583ED
:1058C30012598412596408E8C39940D28A828B839F
:1058D300A3A3A3A3A3A3A3A3A312485E900368E077
:1058E3006C7003A3E06D700F7C757D10122DC112D7
:1058F3005222120D3E8067EA2411F582EB1261A851
:10590300605CFC74FF2CF075080178081208BC7504
:10591300087575091078081208B8E9F508780812AF
:1059230008BCEA2412F582EB1261A8F50878081284
:1059330008BCEA2415F582EB125AD81206D4ECF906
:10594300122DC112485B8A828B83A3A3A3A3A3A3B3
:10595300A3A3A3125226120D5674071208CB023BBF
:1059630043EC24020C0CED3400FD22125AE91259C7
:1059730076E022E0F8A3E0F5838882A32288828977
:1059830083E508F0A3E509F02274EA1203EA74FD43
:1059930012095F8A148B158C0E8D0F890D741912E1
:1059A3000B21125AF1741B120B21E0F511741C1216
:1059B3000B21E0F50C741D120B21124F67741F129B
:1059C3000B21E0F5106008E50CC333240480027456
:1059D30002C0E07401120B21D0E0125B028A088B33
:1059E30009EA45097003025ACD8A828B83A3A3E592
:1059F30014F0A3E5151265FBE50EF0A3E50FF0EA3D
:105A03002413F582EB125AD8E50DF0EA2414F5823B
:105A1300EB125AD8E511F0EA2417F582EB1261A8CC
:105A230064017040120F3C8A0E8B0FA80EA90F85DC
:105A33000882850983A3A3A3A3E0687003A3E06995
:105A43006022EE4F6011E508241AF582E509125A27
:105A5300D8EEF0A3EF800CE5082417F582E50912D0
:105A63005AD8E4F0125ADC125AF18E828F837405ED
:105A7300F0A3E5107004E50C80487401250C125A5C
:105A8300FB7A008028850A82850B83E0125AF7850A
:105A93000A82850B83A3E08E828F83F0E50A2402BA
:105AA300F50AE50B3400F50BA30EAF830AEAC395A1
:105AB3000C40D2120F3CEA125AF7120F3CEB8E82C3
:105AC3008F83F0AA08AB09120C127403024B9DEEEC
:105AD300240CF582EF125AE922122DD2125AE9222E
:105AE300EE240BF582EF3400F58322900334E0FEBD
:105AF300A3E0FF228E828F83F0A3AE82AF832212B4
:105B03003BC5120F9622C082C083E9C333FCE43342
:105B1300FDEA2CFAEB3DFBEA24FEF582EB34FF129F
